{"contracts/L2Contract.sol":{"L2Contract":{"abi":[{"anonymous":false,"inputs":[{"indexed":false,"internalType":"uint32","name":"origin","type":"uint32"},{"indexed":false,"internalType":"address","name":"sender","type":"address"},{"indexed":false,"internalType":"bytes","name":"body","type":"bytes"}],"name":"Received","type":"event"},{"inputs":[{"internalType":"uint32","name":"_origin","type":"uint32"},{"internalType":"bytes32","name":"_sender","type":"bytes32"},{"internalType":"bytes","name":"_body","type":"bytes"}],"name":"handle","outputs":[],"stateMutability":"nonpayable","type":"function"},{"inputs":[{"internalType":"address","name":"","type":"address"}],"name":"isVerified","outputs":[{"internalType":"bool","name":"","type":"bool"}],"stateMutability":"view","type":"function"},{"inputs":[{"internalType":"address","name":"_addr","type":"address"}],"name":"verify","outputs":[],"stateMutability":"nonpayable","type":"function"}],"evm":{"bytecode":{"linkReferences":{},"object":"608060405234801561001057600080fd5b50610308806100206000396000f3fe608060405234801561001057600080fd5b50600436106100415760003560e01c806356d5d4751461004657806363a9c3d71461005b578063b9209e331461008d575b600080fd5b610059610054366004610161565b6100c4565b005b610059610069366004610237565b6001600160a01b03166000908152602081905260409020805460ff19166001179055565b6100b061009b366004610237565b60006020819052908152604090205460ff1681565b604051901515815260200160405180910390f35b337365698ef6229af993c6ac2c2ec8e08dcfea227952146100e457600080fd5b6001600160a01b03821660009081526020819052604090819020805460ff191660011790555182907fbb8068a80970e39c505e930e385376bf8649fce97bd3eb8f4c4dfffc5e9b80339061013d90869084908690610267565b60405180910390a150505050565b634e487b7160e01b600052604160045260246000fd5b60008060006060848603121561017657600080fd5b833563ffffffff8116811461018a57600080fd5b925060208401359150604084013567ffffffffffffffff808211156101ae57600080fd5b818601915086601f8301126101c257600080fd5b8135818111156101d4576101d461014b565b604051601f8201601f19908116603f011681019083821181831017156101fc576101fc61014b565b8160405282815289602084870101111561021557600080fd5b8260208601602083013760006020848301015280955050505050509250925092565b60006020828403121561024957600080fd5b81356001600160a01b038116811461026057600080fd5b9392505050565b63ffffffff841681526000602060018060a01b0385168184015260606040840152835180606085015260005b818110156102af57858101830151858201608001528201610293565b506000608082860101526080601f19601f8301168501019250505094935050505056fea26469706673582212209aa465a1dee3ec79f341bea0c2a854d4f6120945b809bf847bf1f9180e98904664736f6c63430008130033","opcodes":"PUSH1 0x80 PUSH1 0x40 MSTORE CALLVALUE DUP1 ISZERO PUSH2 0x10 JUMPI PUSH1 0x0 DUP1 REVERT JUMPDEST POP PUSH2 0x308 DUP1 PUSH2 0x20 PUSH1 0x0 CODECOPY PUSH1 0x0 RETURN INVALID PUSH1 0x80 PUSH1 0x40 MSTORE CALLVALUE DUP1 ISZERO PUSH2 0x10 JUMPI PUSH1 0x0 DUP1 REVERT JUMPDEST POP PUSH1 0x4 CALLDATASIZE LT PUSH2 0x41 JUMPI PUSH1 0x0 CALLDATALOAD PUSH1 0xE0 SHR DUP1 PUSH4 0x56D5D475 EQ PUSH2 0x46 JUMPI DUP1 PUSH4 0x63A9C3D7 EQ PUSH2 0x5B JUMPI DUP1 PUSH4 0xB9209E33 EQ PUSH2 0x8D JUMPI JUMPDEST PUSH1 0x0 DUP1 REVERT JUMPDEST PUSH2 0x59 PUSH2 0x54 CALLDATASIZE PUSH1 0x4 PUSH2 0x161 JUMP JUMPDEST PUSH2 0xC4 JUMP JUMPDEST STOP JUMPDEST PUSH2 0x59 PUSH2 0x69 CALLDATASIZE PUSH1 0x4 PUSH2 0x237 JUMP JUMPDEST PUSH1 0x1 PUSH1 0x1 PUSH1 0xA0 SHL SUB AND PUSH1 0x0 SWAP1 DUP2 MSTORE PUSH1 0x20 DUP2 SWAP1 MSTORE PUSH1 0x40 SWAP1 KECCAK256 DUP1 SLOAD PUSH1 0xFF NOT AND PUSH1 0x1 OR SWAP1 SSTORE JUMP JUMPDEST PUSH2 0xB0 PUSH2 0x9B CALLDATASIZE PUSH1 0x4 PUSH2 0x237 JUMP JUMPDEST PUSH1 0x0 PUSH1 0x20 DUP2 SWAP1 MSTORE SWAP1 DUP2 MSTORE PUSH1 0x40 SWAP1 KECCAK256 SLOAD PUSH1 0xFF AND DUP2 JUMP JUMPDEST PUSH1 0x40 MLOAD SWAP1 ISZERO ISZERO DUP2 MSTORE PUSH1 0x20 ADD PUSH1 0x40 MLOAD DUP1 SWAP2 SUB SWAP1 RETURN JUMPDEST CALLER PUSH20 0x65698EF6229AF993C6AC2C2EC8E08DCFEA227952 EQ PUSH2 0xE4 JUMPI PUSH1 0x0 DUP1 REVERT JUMPDEST PUSH1 0x1 PUSH1 0x1 PUSH1 0xA0 SHL SUB DUP3 AND PUSH1 0x0 SWAP1 DUP2 MSTORE PUSH1 0x20 DUP2 SWAP1 MSTORE PUSH1 0x40 SWAP1 DUP2 SWAP1 KECCAK256 DUP1 SLOAD PUSH1 0xFF NOT AND PUSH1 0x1 OR SWAP1 SSTORE MLOAD DUP3 SWAP1 PUSH32 0xBB8068A80970E39C505E930E385376BF8649FCE97BD3EB8F4C4DFFFC5E9B8033 SWAP1 PUSH2 0x13D SWAP1 DUP7 SWAP1 DUP5 SWAP1 DUP7 SWAP1 PUSH2 0x267 JUMP JUMPDEST PUSH1 0x40 MLOAD DUP1 SWAP2 SUB SWAP1 LOG1 POP POP POP POP JUMP JUMPDEST PUSH4 0x4E487B71 PUSH1 0xE0 SHL PUSH1 0x0 MSTORE PUSH1 0x41 PUSH1 0x4 MSTORE PUSH1 0x24 PUSH1 0x0 REVERT JUMPDEST PUSH1 0x0 DUP1 PUSH1 0x0 PUSH1 0x60 DUP5 DUP7 SUB SLT ISZERO PUSH2 0x176 JUMPI PUSH1 0x0 DUP1 REVERT JUMPDEST DUP4 CALLDATALOAD PUSH4 0xFFFFFFFF DUP2 AND DUP2 EQ PUSH2 0x18A JUMPI PUSH1 0x0 DUP1 REVERT JUMPDEST SWAP3 POP PUSH1 0x20 DUP5 ADD CALLDATALOAD SWAP2 POP PUSH1 0x40 DUP5 ADD CALLDATALOAD PUSH8 0xFFFFFFFFFFFFFFFF DUP1 DUP3 GT ISZERO PUSH2 0x1AE JUMPI PUSH1 0x0 DUP1 REVERT JUMPDEST DUP2 DUP7 ADD SWAP2 POP DUP7 PUSH1 0x1F DUP4 ADD SLT PUSH2 0x1C2 JUMPI PUSH1 0x0 DUP1 REVERT JUMPDEST DUP2 CALLDATALOAD DUP2 DUP2 GT ISZERO PUSH2 0x1D4 JUMPI PUSH2 0x1D4 PUSH2 0x14B JUMP JUMPDEST PUSH1 0x40 MLOAD PUSH1 0x1F DUP3 ADD PUSH1 0x1F NOT SWAP1 DUP2 AND PUSH1 0x3F ADD AND DUP2 ADD SWAP1 DUP4 DUP3 GT DUP2 DUP4 LT OR ISZERO PUSH2 0x1FC JUMPI PUSH2 0x1FC PUSH2 0x14B JUMP JUMPDEST DUP2 PUSH1 0x40 MSTORE DUP3 DUP2 MSTORE DUP10 PUSH1 0x20 DUP5 DUP8 ADD ADD GT ISZERO PUSH2 0x215 JUMPI PUSH1 0x0 DUP1 REVERT JUMPDEST DUP3 PUSH1 0x20 DUP7 ADD PUSH1 0x20 DUP4 ADD CALLDATACOPY PUSH1 0x0 PUSH1 0x20 DUP5 DUP4 ADD ADD MSTORE DUP1 SWAP6 POP POP POP POP POP POP SWAP3 POP SWAP3 POP SWAP3 JUMP JUMPDEST PUSH1 0x0 PUSH1 0x20 DUP3 DUP5 SUB SLT ISZERO PUSH2 0x249 JUMPI PUSH1 0x0 DUP1 REVERT JUMPDEST DUP2 CALLDATALOAD PUSH1 0x1 PUSH1 0x1 PUSH1 0xA0 SHL SUB DUP2 AND DUP2 EQ PUSH2 0x260 JUMPI PUSH1 0x0 DUP1 REVERT JUMPDEST SWAP4 SWAP3 POP POP POP JUMP JUMPDEST PUSH4 0xFFFFFFFF DUP5 AND DUP2 MSTORE PUSH1 0x0 PUSH1 0x20 PUSH1 0x1 DUP1 PUSH1 0xA0 SHL SUB DUP6 AND DUP2 DUP5 ADD MSTORE PUSH1 0x60 PUSH1 0x40 DUP5 ADD MSTORE DUP4 MLOAD DUP1 PUSH1 0x60 DUP6 ADD MSTORE PUSH1 0x0 JUMPDEST DUP2 DUP2 LT ISZERO PUSH2 0x2AF JUMPI DUP6 DUP2 ADD DUP4 ADD MLOAD DUP6 DUP3 ADD PUSH1 0x80 ADD MSTORE DUP3 ADD PUSH2 0x293 JUMP JUMPDEST POP PUSH1 0x0 PUSH1 0x80 DUP3 DUP7 ADD ADD MSTORE PUSH1 0x80 PUSH1 0x1F NOT PUSH1 0x1F DUP4 ADD AND DUP6 ADD ADD SWAP3 POP POP POP SWAP5 SWAP4 POP POP POP POP JUMP INVALID LOG2 PUSH5 0x6970667358 0x22 SLT KECCAK256 SWAP11 LOG4 PUSH6 0xA1DEE3EC79F3 COINBASE 0xBE LOG0 0xC2 0xA8 SLOAD 0xD4 0xF6 SLT MULMOD GASLIMIT 0xB8 MULMOD 0xBF DUP5 PUSH28 0xF1F9180E98904664736F6C6343000813003300000000000000000000 "},"methodIdentifiers":{"handle(uint32,bytes32,bytes)":"56d5d475","isVerified(address)":"b9209e33","verify(address)":"63a9c3d7"}}}}}