{
  "_format": "hh-sol-artifact-1",
  "contractName": "L1Contract",
  "sourceName": "contracts/L1Contract.sol",
  "abi": [
    {
      "inputs": [
        {
          "internalType": "contract IWorldID",
          "name": "_worldId",
          "type": "address"
        },
        {
          "internalType": "string",
          "name": "_appId",
          "type": "string"
        },
        {
          "internalType": "string",
          "name": "_actionId",
          "type": "string"
        }
      ],
      "stateMutability": "nonpayable",
      "type": "constructor"
    },
    {
      "inputs": [],
      "name": "InvalidNullifier",
      "type": "error"
    },
    {
      "inputs": [],
      "name": "sendTestMessages",
      "outputs": [],
      "stateMutability": "nonpayable",
      "type": "function"
    },
    {
      "inputs": [
        {
          "internalType": "address",
          "name": "signal",
          "type": "address"
        },
        {
          "internalType": "uint256",
          "name": "root",
          "type": "uint256"
        },
        {
          "internalType": "uint256",
          "name": "nullifierHash",
          "type": "uint256"
        },
        {
          "internalType": "uint256[8]",
          "name": "proof",
          "type": "uint256[8]"
        }
      ],
      "name": "verify",
      "outputs": [],
      "stateMutability": "nonpayable",
      "type": "function"
    }
  ],
  "bytecode": "0x610100604052600180546001600160a01b03199081167365698ef6229af993c6ac2c2ec8e08dcfea22795290811783556002556004805490911673cc737a94fecaec165abcf12ded095bb13f03768517905561a45560a05260e05234801561006657600080fd5b5060405161095d38038061095d833981016040819052610085916101d4565b6001600160a01b0383166080526040516100d2906100c0906100ab908590602001610256565b60408051601f198184030181529190526100de565b826040516020016100ab929190610272565b60c05250610298915050565b60006008826040516020016100f39190610256565b60408051601f198184030181529190528051602090910120901c92915050565b634e487b7160e01b600052604160045260246000fd5b60005b8381101561014457818101518382015260200161012c565b50506000910152565b600082601f83011261015e57600080fd5b81516001600160401b038082111561017857610178610113565b604051601f8301601f19908116603f011681019082821181831017156101a0576101a0610113565b816040528381528660208588010111156101b957600080fd5b6101ca846020830160208901610129565b9695505050505050565b6000806000606084860312156101e957600080fd5b83516001600160a01b038116811461020057600080fd5b60208501519093506001600160401b038082111561021d57600080fd5b6102298783880161014d565b9350604086015191508082111561023f57600080fd5b5061024c8682870161014d565b9150509250925092565b60008251610268818460208701610129565b9190910192915050565b8281526000825161028a816020850160208701610129565b919091016020019392505050565b60805160a05160c05160e0516106876102d6600039600060ba0152600061011c01526000818161020001526102d001526000608a01526106876000f3fe608060405234801561001057600080fd5b50600436106100365760003560e01c80631e6ab5331461003b578063d92fd8e614610050575b600080fd5b61004e610049366004610376565b610058565b005b61004e610275565b60008281526020819052604090205460ff161561008857604051632ec8265960e11b815260040160405180910390fd5b7f00000000000000000000000000000000000000000000000000000000000000006001600160a01b0316633bc778e3847f000000000000000000000000000000000000000000000000000000000000000061011988604051602001610105919060609190911b6bffffffffffffffffffffffff1916815260140190565b604051602081830303815290604052610341565b867f0000000000000000000000000000000000000000000000000000000000000000876040518763ffffffff1660e01b815260040161015d969594939291906103d2565b60006040518083038186803b15801561017557600080fd5b505afa158015610189573d6000803e3d6000fd5b50505060008381526020818152604091829020805460ff191660011790558151808301909252600a82526936b9b39739b2b73232b960b11b90820152600391506101d390826104a9565b506004805460025460405163fa31de0160e01b81526001600160a01b039092169263fa31de019261022b927f000000000000000000000000000000000000000000000000000000000000000092909160039101610569565b6020604051808303816000875af115801561024a573d6000803e3d6000fd5b505050506040513d601f19601f8201168201806040525081019061026e9190610609565b5050505050565b60408051808201909152600a81526936b9b39739b2b73232b960b11b60208201526003906102a390826104a9565b506004805460025460405163fa31de0160e01b81526001600160a01b039092169263fa31de01926102fb927f000000000000000000000000000000000000000000000000000000000000000092909160039101610569565b6020604051808303816000875af115801561031a573d6000803e3d6000fd5b505050506040513d601f19601f8201168201806040525081019061033e9190610609565b50565b60006008826040516020016103569190610622565b60408051601f198184030181529190528051602090910120901c92915050565b60008060008061016080868803121561038e57600080fd5b85356001600160a01b03811681146103a557600080fd5b945060208601359350604086013592508086018710156103c457600080fd5b509295919450926060019150565b60006101a0820190508782528660208301528560408301528460608301528360808301526101008360a0840137979650505050505050565b634e487b7160e01b600052604160045260246000fd5b600181811c9082168061043457607f821691505b60208210810361045457634e487b7160e01b600052602260045260246000fd5b50919050565b601f8211156104a457600081815260208120601f850160051c810160208610156104815750805b601f850160051c820191505b818110156104a05782815560010161048d565b5050505b505050565b815167ffffffffffffffff8111156104c3576104c361040a565b6104d7816104d18454610420565b8461045a565b602080601f83116001811461050c57600084156104f45750858301515b600019600386901b1c1916600185901b1785556104a0565b600085815260208120601f198616915b8281101561053b5788860151825594840194600190910190840161051c565b50858210156105595787850151600019600388901b60f8161c191681555b5050505050600190811b01905550565b63ffffffff84168152600060208481840152606060408401526000845461058f81610420565b80606087015260806001808416600081146105b157600181146105cb576105f9565b60ff1985168984015283151560051b8901830195506105f9565b896000528660002060005b858110156105f15781548b82018601529083019088016105d6565b8a0184019650505b50939a9950505050505050505050565b60006020828403121561061b57600080fd5b5051919050565b6000825160005b818110156106435760208186018101518583015201610629565b50600092019182525091905056fea26469706673582212205fd3a81a448c3aa87765638d952e3953b940c13887d13c4786618b0e2e5b3f6c64736f6c63430008130033",
  "linkReferences": {},
  "deployedLinkReferences": {}
}