{
  "_format": "hh-sol-artifact-1",
  "contractName": "L2Contract",
  "sourceName": "contracts/L2Contract.sol",
  "abi": [
    {
      "anonymous": false,
      "inputs": [
        {
          "indexed": false,
          "internalType": "uint32",
          "name": "origin",
          "type": "uint32"
        },
        {
          "indexed": false,
          "internalType": "address",
          "name": "sender",
          "type": "address"
        },
        {
          "indexed": false,
          "internalType": "bytes",
          "name": "body",
          "type": "bytes"
        }
      ],
      "name": "Received",
      "type": "event"
    },
    {
      "inputs": [
        {
          "internalType": "uint32",
          "name": "_origin",
          "type": "uint32"
        },
        {
          "internalType": "bytes32",
          "name": "_sender",
          "type": "bytes32"
        },
        {
          "internalType": "bytes",
          "name": "_body",
          "type": "bytes"
        }
      ],
      "name": "handle",
      "outputs": [],
      "stateMutability": "nonpayable",
      "type": "function"
    },
    {
      "inputs": [
        {
          "internalType": "address",
          "name": "",
          "type": "address"
        }
      ],
      "name": "isVerified",
      "outputs": [
        {
          "internalType": "bool",
          "name": "",
          "type": "bool"
        }
      ],
      "stateMutability": "view",
      "type": "function"
    },
    {
      "inputs": [
        {
          "internalType": "address",
          "name": "_addr",
          "type": "address"
        }
      ],
      "name": "verify",
      "outputs": [],
      "stateMutability": "nonpayable",
      "type": "function"
    }
  ],
  "bytecode": "0x608060405234801561001057600080fd5b50610308806100206000396000f3fe608060405234801561001057600080fd5b50600436106100415760003560e01c806356d5d4751461004657806363a9c3d71461005b578063b9209e331461008d575b600080fd5b610059610054366004610161565b6100c4565b005b610059610069366004610237565b6001600160a01b03166000908152602081905260409020805460ff19166001179055565b6100b061009b366004610237565b60006020819052908152604090205460ff1681565b604051901515815260200160405180910390f35b337365698ef6229af993c6ac2c2ec8e08dcfea227952146100e457600080fd5b6001600160a01b03821660009081526020819052604090819020805460ff191660011790555182907fbb8068a80970e39c505e930e385376bf8649fce97bd3eb8f4c4dfffc5e9b80339061013d90869084908690610267565b60405180910390a150505050565b634e487b7160e01b600052604160045260246000fd5b60008060006060848603121561017657600080fd5b833563ffffffff8116811461018a57600080fd5b925060208401359150604084013567ffffffffffffffff808211156101ae57600080fd5b818601915086601f8301126101c257600080fd5b8135818111156101d4576101d461014b565b604051601f8201601f19908116603f011681019083821181831017156101fc576101fc61014b565b8160405282815289602084870101111561021557600080fd5b8260208601602083013760006020848301015280955050505050509250925092565b60006020828403121561024957600080fd5b81356001600160a01b038116811461026057600080fd5b9392505050565b63ffffffff841681526000602060018060a01b0385168184015260606040840152835180606085015260005b818110156102af57858101830151858201608001528201610293565b506000608082860101526080601f19601f8301168501019250505094935050505056fea26469706673582212209aa465a1dee3ec79f341bea0c2a854d4f6120945b809bf847bf1f9180e98904664736f6c63430008130033",
  "linkReferences": {},
  "deployedLinkReferences": {}
}